{
  "contractName": "Voting",
  "abi": [
    {
      "inputs": [
        {
          "internalType": "string[]",
          "name": "candidateNames",
          "type": "string[]"
        }
      ],
      "stateMutability": "nonpayable",
      "type": "constructor"
    },
    {
      "inputs": [
        {
          "internalType": "address",
          "name": "owner",
          "type": "address"
        }
      ],
      "name": "OwnableInvalidOwner",
      "type": "error"
    },
    {
      "inputs": [
        {
          "internalType": "address",
          "name": "account",
          "type": "address"
        }
      ],
      "name": "OwnableUnauthorizedAccount",
      "type": "error"
    },
    {
      "anonymous": false,
      "inputs": [
        {
          "indexed": true,
          "internalType": "address",
          "name": "previousOwner",
          "type": "address"
        },
        {
          "indexed": true,
          "internalType": "address",
          "name": "newOwner",
          "type": "address"
        }
      ],
      "name": "OwnershipTransferred",
      "type": "event"
    },
    {
      "anonymous": false,
      "inputs": [
        {
          "indexed": true,
          "internalType": "uint256",
          "name": "candidateId",
          "type": "uint256"
        }
      ],
      "name": "VotedEvent",
      "type": "event"
    },
    {
      "inputs": [
        {
          "internalType": "uint256",
          "name": "",
          "type": "uint256"
        }
      ],
      "name": "candidates",
      "outputs": [
        {
          "internalType": "uint256",
          "name": "id",
          "type": "uint256"
        },
        {
          "internalType": "string",
          "name": "name",
          "type": "string"
        },
        {
          "internalType": "uint256",
          "name": "voteCount",
          "type": "uint256"
        }
      ],
      "stateMutability": "view",
      "type": "function",
      "constant": true
    },
    {
      "inputs": [],
      "name": "candidatesCount",
      "outputs": [
        {
          "internalType": "uint256",
          "name": "",
          "type": "uint256"
        }
      ],
      "stateMutability": "view",
      "type": "function",
      "constant": true
    },
    {
      "inputs": [],
      "name": "owner",
      "outputs": [
        {
          "internalType": "address",
          "name": "",
          "type": "address"
        }
      ],
      "stateMutability": "view",
      "type": "function",
      "constant": true
    },
    {
      "inputs": [],
      "name": "renounceOwnership",
      "outputs": [],
      "stateMutability": "nonpayable",
      "type": "function"
    },
    {
      "inputs": [
        {
          "internalType": "address",
          "name": "newOwner",
          "type": "address"
        }
      ],
      "name": "transferOwnership",
      "outputs": [],
      "stateMutability": "nonpayable",
      "type": "function"
    },
    {
      "inputs": [
        {
          "internalType": "address",
          "name": "",
          "type": "address"
        }
      ],
      "name": "voters",
      "outputs": [
        {
          "internalType": "bool",
          "name": "",
          "type": "bool"
        }
      ],
      "stateMutability": "view",
      "type": "function",
      "constant": true
    },
    {
      "inputs": [
        {
          "internalType": "uint256",
          "name": "candidateId",
          "type": "uint256"
        }
      ],
      "name": "vote",
      "outputs": [],
      "stateMutability": "nonpayable",
      "type": "function"
    }
  ],
  "bytecode": "0x608060405234801562000010575f80fd5b5060405162001311380380620013118339818101604052810190620000369190620004cb565b335f73ffffffffffffffffffffffffffffffffffffffff168173ffffffffffffffffffffffffffffffffffffffff1603620000aa575f6040517f1e4fbdf7000000000000000000000000000000000000000000000000000000008152600401620000a191906200055d565b60405180910390fd5b620000bb816200011460201b60201c565b505f5b81518110156200010c57620000f6828281518110620000e257620000e162000578565b5b6020026020010151620001d560201b60201c565b80806200010390620005db565b915050620000be565b505062000939565b5f805f9054906101000a900473ffffffffffffffffffffffffffffffffffffffff169050815f806101000a81548173ffffffffffffffffffffffffffffffffffffffff021916908373ffffffffffffffffffffffffffffffffffffffff1602179055508173ffffffffffffffffffffffffffffffffffffffff168173ffffffffffffffffffffffffffffffffffffffff167f8be0079c531659141344cd1fd0a4f28419497f9722a3daafe3b4186f6b6457e060405160405180910390a35050565b60025f815480929190620001e990620005db565b9190505550604051806060016040528060025481526020018281526020015f81525060015f60025481526020019081526020015f205f820151815f015560208201518160010190816200023d919062000855565b506040820151816002015590505050565b5f604051905090565b5f80fd5b5f80fd5b5f80fd5b5f601f19601f8301169050919050565b7f4e487b71000000000000000000000000000000000000000000000000000000005f52604160045260245ffd5b620002ab8262000263565b810181811067ffffffffffffffff82111715620002cd57620002cc62000273565b5b80604052505050565b5f620002e16200024e565b9050620002ef8282620002a0565b919050565b5f67ffffffffffffffff82111562000311576200031062000273565b5b602082029050602081019050919050565b5f80fd5b5f80fd5b5f67ffffffffffffffff82111562000347576200034662000273565b5b620003528262000263565b9050602081019050919050565b5f5b838110156200037e57808201518184015260208101905062000361565b5f8484015250505050565b5f6200039f62000399846200032a565b620002d6565b905082815260208101848484011115620003be57620003bd62000326565b5b620003cb8482856200035f565b509392505050565b5f82601f830112620003ea57620003e96200025f565b5b8151620003fc84826020860162000389565b91505092915050565b5f6200041b6200041584620002f4565b620002d6565b9050808382526020820190506020840283018581111562000441576200044062000322565b5b835b818110156200048f57805167ffffffffffffffff8111156200046a57620004696200025f565b5b808601620004798982620003d3565b8552602085019450505060208101905062000443565b5050509392505050565b5f82601f830112620004b057620004af6200025f565b5b8151620004c284826020860162000405565b91505092915050565b5f60208284031215620004e357620004e262000257565b5b5f82015167ffffffffffffffff8111156200050357620005026200025b565b5b620005118482850162000499565b91505092915050565b5f73ffffffffffffffffffffffffffffffffffffffff82169050919050565b5f62000545826200051a565b9050919050565b620005578162000539565b82525050565b5f602082019050620005725f8301846200054c565b92915050565b7f4e487b71000000000000000000000000000000000000000000000000000000005f52603260045260245ffd5b7f4e487b71000000000000000000000000000000000000000000000000000000005f52601160045260245ffd5b5f819050919050565b5f620005e782620005d2565b91507fffffffffffffffffffffffffffffffffffffffffffffffffffffffffffffffff82036200061c576200061b620005a5565b5b600182019050919050565b5f81519050919050565b7f4e487b71000000000000000000000000000000000000000000000000000000005f52602260045260245ffd5b5f60028204905060018216806200067657607f821691505b6020821081036200068c576200068b62000631565b5b50919050565b5f819050815f5260205f209050919050565b5f6020601f8301049050919050565b5f82821b905092915050565b5f60088302620006f07fffffffffffffffffffffffffffffffffffffffffffffffffffffffffffffffff82620006b3565b620006fc8683620006b3565b95508019841693508086168417925050509392505050565b5f819050919050565b5f6200073d620007376200073184620005d2565b62000714565b620005d2565b9050919050565b5f819050919050565b62000758836200071d565b62000770620007678262000744565b848454620006bf565b825550505050565b5f90565b6200078662000778565b620007938184846200074d565b505050565b5b81811015620007ba57620007ae5f826200077c565b60018101905062000799565b5050565b601f8211156200080957620007d38162000692565b620007de84620006a4565b81016020851015620007ee578190505b62000806620007fd85620006a4565b83018262000798565b50505b505050565b5f82821c905092915050565b5f6200082b5f19846008026200080e565b1980831691505092915050565b5f6200084583836200081a565b9150826002028217905092915050565b620008608262000627565b67ffffffffffffffff8111156200087c576200087b62000273565b5b6200088882546200065e565b62000895828285620007be565b5f60209050601f831160018114620008cb575f8415620008b6578287015190505b620008c2858262000838565b86555062000931565b601f198416620008db8662000692565b5f5b828110156200090457848901518255600182019150602085019450602081019050620008dd565b8683101562000924578489015162000920601f8916826200081a565b8355505b6001600288020188555050505b505050505050565b6109ca80620009475f395ff3fe608060405234801561000f575f80fd5b506004361061007b575f3560e01c8063715018a611610059578063715018a6146100eb5780638da5cb5b146100f5578063a3ec138d14610113578063f2fde38b146101435761007b565b80630121b93f1461007f5780632d35a8a21461009b5780633477ee2e146100b9575b5f80fd5b610099600480360381019061009491906105fa565b61015f565b005b6100a36102e7565b6040516100b09190610634565b60405180910390f35b6100d360048036038101906100ce91906105fa565b6102ed565b6040516100e2939291906106d7565b60405180910390f35b6100f3610399565b005b6100fd6103ac565b60405161010a9190610752565b60405180910390f35b61012d60048036038101906101289190610795565b6103d3565b60405161013a91906107da565b60405180910390f35b61015d60048036038101906101589190610795565b6103f0565b005b60035f3373ffffffffffffffffffffffffffffffffffffffff1673ffffffffffffffffffffffffffffffffffffffff1681526020019081526020015f205f9054906101000a900460ff16156101e9576040517f08c379a00000000000000000000000000000000000000000000000000000000081526004016101e09061083d565b60405180910390fd5b5f811180156101fa57506002548111155b610239576040517f08c379a0000000000000000000000000000000000000000000000000000000008152600401610230906108a5565b60405180910390fd5b600160035f3373ffffffffffffffffffffffffffffffffffffffff1673ffffffffffffffffffffffffffffffffffffffff1681526020019081526020015f205f6101000a81548160ff02191690831515021790555060015f8281526020019081526020015f206002015f8154809291906102b2906108f0565b9190505550807fe447c5464cb203c1da94b4db8588d3cbf313ce4a489122f6b88e87f465b2810e60405160405180910390a250565b60025481565b6001602052805f5260405f205f91509050805f01549080600101805461031290610964565b80601f016020809104026020016040519081016040528092919081815260200182805461033e90610964565b80156103895780601f1061036057610100808354040283529160200191610389565b820191905f5260205f20905b81548152906001019060200180831161036c57829003601f168201915b5050505050908060020154905083565b6103a1610474565b6103aa5f6104fb565b565b5f805f9054906101000a900473ffffffffffffffffffffffffffffffffffffffff16905090565b6003602052805f5260405f205f915054906101000a900460ff1681565b6103f8610474565b5f73ffffffffffffffffffffffffffffffffffffffff168173ffffffffffffffffffffffffffffffffffffffff1603610468575f6040517f1e4fbdf700000000000000000000000000000000000000000000000000000000815260040161045f9190610752565b60405180910390fd5b610471816104fb565b50565b61047c6105bc565b73ffffffffffffffffffffffffffffffffffffffff1661049a6103ac565b73ffffffffffffffffffffffffffffffffffffffff16146104f9576104bd6105bc565b6040517f118cdaa70000000000000000000000000000000000000000000000000000000081526004016104f09190610752565b60405180910390fd5b565b5f805f9054906101000a900473ffffffffffffffffffffffffffffffffffffffff169050815f806101000a81548173ffffffffffffffffffffffffffffffffffffffff021916908373ffffffffffffffffffffffffffffffffffffffff1602179055508173ffffffffffffffffffffffffffffffffffffffff168173ffffffffffffffffffffffffffffffffffffffff167f8be0079c531659141344cd1fd0a4f28419497f9722a3daafe3b4186f6b6457e060405160405180910390a35050565b5f33905090565b5f80fd5b5f819050919050565b6105d9816105c7565b81146105e3575f80fd5b50565b5f813590506105f4816105d0565b92915050565b5f6020828403121561060f5761060e6105c3565b5b5f61061c848285016105e6565b91505092915050565b61062e816105c7565b82525050565b5f6020820190506106475f830184610625565b92915050565b5f81519050919050565b5f82825260208201905092915050565b5f5b83811015610684578082015181840152602081019050610669565b5f8484015250505050565b5f601f19601f8301169050919050565b5f6106a98261064d565b6106b38185610657565b93506106c3818560208601610667565b6106cc8161068f565b840191505092915050565b5f6060820190506106ea5f830186610625565b81810360208301526106fc818561069f565b905061070b6040830184610625565b949350505050565b5f73ffffffffffffffffffffffffffffffffffffffff82169050919050565b5f61073c82610713565b9050919050565b61074c81610732565b82525050565b5f6020820190506107655f830184610743565b92915050565b61077481610732565b811461077e575f80fd5b50565b5f8135905061078f8161076b565b92915050565b5f602082840312156107aa576107a96105c3565b5b5f6107b784828501610781565b91505092915050565b5f8115159050919050565b6107d4816107c0565b82525050565b5f6020820190506107ed5f8301846107cb565b92915050565b7f596f75206861766520616c726561647920766f7465642e0000000000000000005f82015250565b5f610827601783610657565b9150610832826107f3565b602082019050919050565b5f6020820190508181035f8301526108548161081b565b9050919050565b7f496e76616c69642063616e6469646174652049442e00000000000000000000005f82015250565b5f61088f601583610657565b915061089a8261085b565b602082019050919050565b5f6020820190508181035f8301526108bc81610883565b9050919050565b7f4e487b71000000000000000000000000000000000000000000000000000000005f52601160045260245ffd5b5f6108fa826105c7565b91507fffffffffffffffffffffffffffffffffffffffffffffffffffffffffffffffff820361092c5761092b6108c3565b5b600182019050919050565b7f4e487b71000000000000000000000000000000000000000000000000000000005f52602260045260245ffd5b5f600282049050600182168061097b57607f821691505b60208210810361098e5761098d610937565b5b5091905056fea2646970667358221220e01875e123feafef8e042e95a89d65082dd98b6b3fc88df174ba492a0a2491e764736f6c63430008150033",
  "immutableReferences": {},
  "source": "// SPDX-License-Identifier: MIT\n// pragma solidity ^0.8.0;\n\n// contract SimpleContract {\n//     uint256 public value;\n\n//     function setValue(uint256 _value) public {\n//         value = _value;\n//     }\n// }\n\npragma solidity ^0.8.0;\n\nimport \"@openzeppelin/contracts/access/Ownable.sol\";\n\ncontract Voting is Ownable {\n    struct Candidate { // \n        uint256 id; // ID\n        string name; // \n        uint256 voteCount; // \n    }\n\n    mapping(uint256 => Candidate) public candidates; // ID\n    uint256 public candidatesCount; // \n    mapping(address => bool) public voters; // \n\n    event VotedEvent(uint256 indexed candidateId);\n\n    constructor(string[] memory candidateNames) Ownable(msg.sender) { // \n        for (uint256 i = 0; i < candidateNames.length; i++) {\n            addCandidate(candidateNames[i]);\n        }\n    }\n\n    function addCandidate(string memory name) private {\n        candidatesCount++; // \n        candidates[candidatesCount] = Candidate(candidatesCount, name, 0); // \n    }\n\n    function vote(uint256 candidateId) public {\n        require(!voters[msg.sender], \"You have already voted.\");\n        require(candidateId > 0 && candidateId <= candidatesCount, \"Invalid candidate ID.\");\n\n        voters[msg.sender] = true; // \n        candidates[candidateId].voteCount++; // \n\n        emit VotedEvent(candidateId);\n    }\n}\n\n",
  "sourcePath": "/Users/simon.huang/test/web3_voting_system/contracts/Voting.sol",
  "compiler": {
    "name": "solc",
    "version": "0.8.21+commit.d9974bed.Emscripten.clang"
  },
  "schemaVersion": "3.4.16",
  "updatedAt": "2025-03-28T10:59:14.148Z",
  "networkType": "ethereum",
  "devdoc": {
    "errors": {
      "OwnableInvalidOwner(address)": [
        {
          "details": "The owner is not a valid owner account. (eg. `address(0)`)"
        }
      ],
      "OwnableUnauthorizedAccount(address)": [
        {
          "details": "The caller account is not authorized to perform an operation."
        }
      ]
    },
    "kind": "dev",
    "methods": {
      "owner()": {
        "details": "Returns the address of the current owner."
      },
      "renounceOwnership()": {
        "details": "Leaves the contract without owner. It will not be possible to call `onlyOwner` functions. Can only be called by the current owner. NOTE: Renouncing ownership will leave the contract without an owner, thereby disabling any functionality that is only available to the owner."
      },
      "transferOwnership(address)": {
        "details": "Transfers ownership of the contract to a new account (`newOwner`). Can only be called by the current owner."
      }
    },
    "version": 1
  },
  "userdoc": {
    "kind": "user",
    "methods": {},
    "version": 1
  }
}